{
  "_format": "hh-sol-artifact-1",
  "contractName": "ArGram",
  "sourceName": "contracts/NFT.sol",
  "abi": [
    {
      "inputs": [],
      "stateMutability": "nonpayable",
      "type": "constructor"
    },
    {
      "anonymous": false,
      "inputs": [
        {
          "indexed": true,
          "internalType": "address",
          "name": "owner",
          "type": "address"
        },
        {
          "indexed": true,
          "internalType": "address",
          "name": "approved",
          "type": "address"
        },
        {
          "indexed": true,
          "internalType": "uint256",
          "name": "tokenId",
          "type": "uint256"
        }
      ],
      "name": "Approval",
      "type": "event"
    },
    {
      "anonymous": false,
      "inputs": [
        {
          "indexed": true,
          "internalType": "address",
          "name": "owner",
          "type": "address"
        },
        {
          "indexed": true,
          "internalType": "address",
          "name": "operator",
          "type": "address"
        },
        {
          "indexed": false,
          "internalType": "bool",
          "name": "approved",
          "type": "bool"
        }
      ],
      "name": "ApprovalForAll",
      "type": "event"
    },
    {
      "anonymous": false,
      "inputs": [
        {
          "indexed": true,
          "internalType": "address",
          "name": "previousOwner",
          "type": "address"
        },
        {
          "indexed": true,
          "internalType": "address",
          "name": "newOwner",
          "type": "address"
        }
      ],
      "name": "OwnershipTransferred",
      "type": "event"
    },
    {
      "anonymous": false,
      "inputs": [
        {
          "indexed": true,
          "internalType": "address",
          "name": "from",
          "type": "address"
        },
        {
          "indexed": true,
          "internalType": "address",
          "name": "to",
          "type": "address"
        },
        {
          "indexed": true,
          "internalType": "uint256",
          "name": "tokenId",
          "type": "uint256"
        }
      ],
      "name": "Transfer",
      "type": "event"
    },
    {
      "inputs": [
        {
          "internalType": "address",
          "name": "to",
          "type": "address"
        },
        {
          "internalType": "uint256",
          "name": "tokenId",
          "type": "uint256"
        }
      ],
      "name": "approve",
      "outputs": [],
      "stateMutability": "nonpayable",
      "type": "function"
    },
    {
      "inputs": [
        {
          "internalType": "address",
          "name": "owner",
          "type": "address"
        }
      ],
      "name": "balanceOf",
      "outputs": [
        {
          "internalType": "uint256",
          "name": "",
          "type": "uint256"
        }
      ],
      "stateMutability": "view",
      "type": "function"
    },
    {
      "inputs": [
        {
          "internalType": "uint256",
          "name": "tokenId",
          "type": "uint256"
        }
      ],
      "name": "getApproved",
      "outputs": [
        {
          "internalType": "address",
          "name": "",
          "type": "address"
        }
      ],
      "stateMutability": "view",
      "type": "function"
    },
    {
      "inputs": [
        {
          "internalType": "address",
          "name": "owner",
          "type": "address"
        },
        {
          "internalType": "address",
          "name": "operator",
          "type": "address"
        }
      ],
      "name": "isApprovedForAll",
      "outputs": [
        {
          "internalType": "bool",
          "name": "",
          "type": "bool"
        }
      ],
      "stateMutability": "view",
      "type": "function"
    },
    {
      "inputs": [
        {
          "internalType": "address",
          "name": "recipient",
          "type": "address"
        },
        {
          "internalType": "string",
          "name": "_tokenURI",
          "type": "string"
        }
      ],
      "name": "mintNFT",
      "outputs": [
        {
          "internalType": "uint256",
          "name": "",
          "type": "uint256"
        }
      ],
      "stateMutability": "nonpayable",
      "type": "function"
    },
    {
      "inputs": [],
      "name": "name",
      "outputs": [
        {
          "internalType": "string",
          "name": "",
          "type": "string"
        }
      ],
      "stateMutability": "view",
      "type": "function"
    },
    {
      "inputs": [],
      "name": "owner",
      "outputs": [
        {
          "internalType": "address",
          "name": "",
          "type": "address"
        }
      ],
      "stateMutability": "view",
      "type": "function"
    },
    {
      "inputs": [
        {
          "internalType": "uint256",
          "name": "tokenId",
          "type": "uint256"
        }
      ],
      "name": "ownerOf",
      "outputs": [
        {
          "internalType": "address",
          "name": "",
          "type": "address"
        }
      ],
      "stateMutability": "view",
      "type": "function"
    },
    {
      "inputs": [],
      "name": "renounceOwnership",
      "outputs": [],
      "stateMutability": "nonpayable",
      "type": "function"
    },
    {
      "inputs": [
        {
          "internalType": "address",
          "name": "from",
          "type": "address"
        },
        {
          "internalType": "address",
          "name": "to",
          "type": "address"
        },
        {
          "internalType": "uint256",
          "name": "tokenId",
          "type": "uint256"
        }
      ],
      "name": "safeTransferFrom",
      "outputs": [],
      "stateMutability": "nonpayable",
      "type": "function"
    },
    {
      "inputs": [
        {
          "internalType": "address",
          "name": "from",
          "type": "address"
        },
        {
          "internalType": "address",
          "name": "to",
          "type": "address"
        },
        {
          "internalType": "uint256",
          "name": "tokenId",
          "type": "uint256"
        },
        {
          "internalType": "bytes",
          "name": "data",
          "type": "bytes"
        }
      ],
      "name": "safeTransferFrom",
      "outputs": [],
      "stateMutability": "nonpayable",
      "type": "function"
    },
    {
      "inputs": [
        {
          "internalType": "address",
          "name": "operator",
          "type": "address"
        },
        {
          "internalType": "bool",
          "name": "approved",
          "type": "bool"
        }
      ],
      "name": "setApprovalForAll",
      "outputs": [],
      "stateMutability": "nonpayable",
      "type": "function"
    },
    {
      "inputs": [
        {
          "internalType": "string",
          "name": "baseURI_",
          "type": "string"
        }
      ],
      "name": "setBaseURI",
      "outputs": [],
      "stateMutability": "nonpayable",
      "type": "function"
    },
    {
      "inputs": [
        {
          "internalType": "bytes4",
          "name": "interfaceId",
          "type": "bytes4"
        }
      ],
      "name": "supportsInterface",
      "outputs": [
        {
          "internalType": "bool",
          "name": "",
          "type": "bool"
        }
      ],
      "stateMutability": "view",
      "type": "function"
    },
    {
      "inputs": [],
      "name": "symbol",
      "outputs": [
        {
          "internalType": "string",
          "name": "",
          "type": "string"
        }
      ],
      "stateMutability": "view",
      "type": "function"
    },
    {
      "inputs": [
        {
          "internalType": "uint256",
          "name": "tokenId",
          "type": "uint256"
        }
      ],
      "name": "tokenURI",
      "outputs": [
        {
          "internalType": "string",
          "name": "",
          "type": "string"
        }
      ],
      "stateMutability": "view",
      "type": "function"
    },
    {
      "inputs": [
        {
          "internalType": "address",
          "name": "from",
          "type": "address"
        },
        {
          "internalType": "address",
          "name": "to",
          "type": "address"
        },
        {
          "internalType": "uint256",
          "name": "tokenId",
          "type": "uint256"
        }
      ],
      "name": "transferFrom",
      "outputs": [],
      "stateMutability": "nonpayable",
      "type": "function"
    },
    {
      "inputs": [
        {
          "internalType": "address",
          "name": "newOwner",
          "type": "address"
        }
      ],
      "name": "transferOwnership",
      "outputs": [],
      "stateMutability": "nonpayable",
      "type": "function"
    }
  ],
  "bytecode": "0x60806040523480156200001157600080fd5b506040518060400160405280600681526020017f41524752414d00000000000000000000000000000000000000000000000000008152506040518060400160405280600681526020017f41524752414d0000000000000000000000000000000000000000000000000000815250816000908051906020019062000096929190620001a6565b508060019080519060200190620000af929190620001a6565b505050620000d2620000c6620000d860201b60201c565b620000e060201b60201c565b620002bb565b600033905090565b6000600660009054906101000a900473ffffffffffffffffffffffffffffffffffffffff16905081600660006101000a81548173ffffffffffffffffffffffffffffffffffffffff021916908373ffffffffffffffffffffffffffffffffffffffff1602179055508173ffffffffffffffffffffffffffffffffffffffff168173ffffffffffffffffffffffffffffffffffffffff167f8be0079c531659141344cd1fd0a4f28419497f9722a3daafe3b4186f6b6457e060405160405180910390a35050565b828054620001b49062000285565b90600052602060002090601f016020900481019282620001d8576000855562000224565b82601f10620001f357805160ff191683800117855562000224565b8280016001018555821562000224579182015b828111156200022357825182559160200191906001019062000206565b5b50905062000233919062000237565b5090565b5b808211156200025257600081600090555060010162000238565b5090565b7f4e487b7100000000000000000000000000000000000000000000000000000000600052602260045260246000fd5b600060028204905060018216806200029e57607f821691505b60208210811415620002b557620002b462000256565b5b50919050565b612db080620002cb6000396000f3fe608060405234801561001057600080fd5b50600436106101165760003560e01c8063715018a6116100a2578063b88d4fde11610071578063b88d4fde146102cb578063c87b56dd146102e7578063e985e9c514610317578063eacabe1414610347578063f2fde38b1461037757610116565b8063715018a6146102695780638da5cb5b1461027357806395d89b4114610291578063a22cb465146102af57610116565b806323b872dd116100e957806323b872dd146101b557806342842e0e146101d157806355f804b3146101ed5780636352211e1461020957806370a082311461023957610116565b806301ffc9a71461011b57806306fdde031461014b578063081812fc14610169578063095ea7b314610199575b600080fd5b61013560048036038101906101309190611ba7565b610393565b6040516101429190611bef565b60405180910390f35b610153610475565b6040516101609190611ca3565b60405180910390f35b610183600480360381019061017e9190611cfb565b610507565b6040516101909190611d69565b60405180910390f35b6101b360048036038101906101ae9190611db0565b61054d565b005b6101cf60048036038101906101ca9190611df0565b610665565b005b6101eb60048036038101906101e69190611df0565b6106c5565b005b61020760048036038101906102029190611f78565b6106e5565b005b610223600480360381019061021e9190611cfb565b610707565b6040516102309190611d69565b60405180910390f35b610253600480360381019061024e9190611fc1565b6107b9565b6040516102609190611ffd565b60405180910390f35b610271610871565b005b61027b610885565b6040516102889190611d69565b60405180910390f35b6102996108af565b6040516102a69190611ca3565b60405180910390f35b6102c960048036038101906102c49190612044565b610941565b005b6102e560048036038101906102e09190612125565b610957565b005b61030160048036038101906102fc9190611cfb565b6109b9565b60405161030e9190611ca3565b60405180910390f35b610331600480360381019061032c91906121a8565b610b2c565b60405161033e9190611bef565b60405180910390f35b610361600480360381019061035c91906121e8565b610bc0565b60405161036e9190611ffd565b60405180910390f35b610391600480360381019061038c9190611fc1565b610c00565b005b60007f80ac58cd000000000000000000000000000000000000000000000000000000007bffffffffffffffffffffffffffffffffffffffffffffffffffffffff1916827bffffffffffffffffffffffffffffffffffffffffffffffffffffffff1916148061045e57507f5b5e139f000000000000000000000000000000000000000000000000000000007bffffffffffffffffffffffffffffffffffffffffffffffffffffffff1916827bffffffffffffffffffffffffffffffffffffffffffffffffffffffff1916145b8061046e575061046d82610c84565b5b9050919050565b60606000805461048490612273565b80601f01602080910402602001604051908101604052809291908181526020018280546104b090612273565b80156104fd5780601f106104d2576101008083540402835291602001916104fd565b820191906000526020600020905b8154815290600101906020018083116104e057829003601f168201915b5050505050905090565b600061051282610cee565b6004600083815260200190815260200160002060009054906101000a900473ffffffffffffffffffffffffffffffffffffffff169050919050565b600061055882610707565b90508073ffffffffffffffffffffffffffffffffffffffff168373ffffffffffffffffffffffffffffffffffffffff1614156105c9576040517f08c379a00000000000000000000000000000000000000000000000000000000081526004016105c090612317565b60405180910390fd5b8073ffffffffffffffffffffffffffffffffffffffff166105e8610d39565b73ffffffffffffffffffffffffffffffffffffffff161480610617575061061681610611610d39565b610b2c565b5b610656576040517f08c379a000000000000000000000000000000000000000000000000000000000815260040161064d906123a9565b60405180910390fd5b6106608383610d41565b505050565b610676610670610d39565b82610dfa565b6106b5576040517f08c379a00000000000000000000000000000000000000000000000000000000081526004016106ac9061243b565b60405180910390fd5b6106c0838383610e8f565b505050565b6106e083838360405180602001604052806000815250610957565b505050565b6106ed6110f6565b8060099080519060200190610703929190611a98565b5050565b6000806002600084815260200190815260200160002060009054906101000a900473ffffffffffffffffffffffffffffffffffffffff169050600073ffffffffffffffffffffffffffffffffffffffff168173ffffffffffffffffffffffffffffffffffffffff1614156107b0576040517f08c379a00000000000000000000000000000000000000000000000000000000081526004016107a7906124a7565b60405180910390fd5b80915050919050565b60008073ffffffffffffffffffffffffffffffffffffffff168273ffffffffffffffffffffffffffffffffffffffff16141561082a576040517f08c379a000000000000000000000000000000000000000000000000000000000815260040161082190612539565b60405180910390fd5b600360008373ffffffffffffffffffffffffffffffffffffffff1673ffffffffffffffffffffffffffffffffffffffff168152602001908152602001600020549050919050565b6108796110f6565b6108836000611174565b565b6000600660009054906101000a900473ffffffffffffffffffffffffffffffffffffffff16905090565b6060600180546108be90612273565b80601f01602080910402602001604051908101604052809291908181526020018280546108ea90612273565b80156109375780601f1061090c57610100808354040283529160200191610937565b820191906000526020600020905b81548152906001019060200180831161091a57829003601f168201915b5050505050905090565b61095361094c610d39565b838361123a565b5050565b610968610962610d39565b83610dfa565b6109a7576040517f08c379a000000000000000000000000000000000000000000000000000000000815260040161099e9061243b565b60405180910390fd5b6109b3848484846113a7565b50505050565b60606109c482611403565b610a03576040517f08c379a00000000000000000000000000000000000000000000000000000000081526004016109fa906125cb565b60405180910390fd5b6000600860008481526020019081526020016000208054610a2390612273565b80601f0160208091040260200160405190810160405280929190818152602001828054610a4f90612273565b8015610a9c5780601f10610a7157610100808354040283529160200191610a9c565b820191906000526020600020905b815481529060010190602001808311610a7f57829003601f168201915b505050505090506000610aad61146f565b9050600081511415610ac3578192505050610b27565b600082511115610af8578082604051602001610ae0929190612627565b60405160208183030381529060405292505050610b27565b80610b0285611501565b604051602001610b13929190612627565b604051602081830303815290604052925050505b919050565b6000600560008473ffffffffffffffffffffffffffffffffffffffff1673ffffffffffffffffffffffffffffffffffffffff16815260200190815260200160002060008373ffffffffffffffffffffffffffffffffffffffff1673ffffffffffffffffffffffffffffffffffffffff16815260200190815260200160002060009054906101000a900460ff16905092915050565b6000610bca6110f6565b610bd46007611662565b6000610be06007611678565b9050610bec8482611686565b610bf68184611860565b8091505092915050565b610c086110f6565b600073ffffffffffffffffffffffffffffffffffffffff168173ffffffffffffffffffffffffffffffffffffffff161415610c78576040517f08c379a0000000000000000000000000000000000000000000000000000000008152600401610c6f906126bd565b60405180910390fd5b610c8181611174565b50565b60007f01ffc9a7000000000000000000000000000000000000000000000000000000007bffffffffffffffffffffffffffffffffffffffffffffffffffffffff1916827bffffffffffffffffffffffffffffffffffffffffffffffffffffffff1916149050919050565b610cf781611403565b610d36576040517f08c379a0000000000000000000000000000000000000000000000000000000008152600401610d2d906124a7565b60405180910390fd5b50565b600033905090565b816004600083815260200190815260200160002060006101000a81548173ffffffffffffffffffffffffffffffffffffffff021916908373ffffffffffffffffffffffffffffffffffffffff160217905550808273ffffffffffffffffffffffffffffffffffffffff16610db483610707565b73ffffffffffffffffffffffffffffffffffffffff167f8c5be1e5ebec7d5bd14f71427d1e84f3dd0314c0f7b2291e5b200ac8c7c3b92560405160405180910390a45050565b600080610e0683610707565b90508073ffffffffffffffffffffffffffffffffffffffff168473ffffffffffffffffffffffffffffffffffffffff161480610e485750610e478185610b2c565b5b80610e8657508373ffffffffffffffffffffffffffffffffffffffff16610e6e84610507565b73ffffffffffffffffffffffffffffffffffffffff16145b91505092915050565b8273ffffffffffffffffffffffffffffffffffffffff16610eaf82610707565b73ffffffffffffffffffffffffffffffffffffffff1614610f05576040517f08c379a0000000000000000000000000000000000000000000000000000000008152600401610efc9061274f565b60405180910390fd5b600073ffffffffffffffffffffffffffffffffffffffff168273ffffffffffffffffffffffffffffffffffffffff161415610f75576040517f08c379a0000000000000000000000000000000000000000000000000000000008152600401610f6c906127e1565b60405180910390fd5b610f808383836118d4565b610f8b600082610d41565b6001600360008573ffffffffffffffffffffffffffffffffffffffff1673ffffffffffffffffffffffffffffffffffffffff1681526020019081526020016000206000828254610fdb9190612830565b925050819055506001600360008473ffffffffffffffffffffffffffffffffffffffff1673ffffffffffffffffffffffffffffffffffffffff16815260200190815260200160002060008282546110329190612864565b92505081905550816002600083815260200190815260200160002060006101000a81548173ffffffffffffffffffffffffffffffffffffffff021916908373ffffffffffffffffffffffffffffffffffffffff160217905550808273ffffffffffffffffffffffffffffffffffffffff168473ffffffffffffffffffffffffffffffffffffffff167fddf252ad1be2c89b69c2b068fc378daa952ba7f163c4a11628f55a4df523b3ef60405160405180910390a46110f18383836118d9565b505050565b6110fe610d39565b73ffffffffffffffffffffffffffffffffffffffff1661111c610885565b73ffffffffffffffffffffffffffffffffffffffff1614611172576040517f08c379a000000000000000000000000000000000000000000000000000000000815260040161116990612906565b60405180910390fd5b565b6000600660009054906101000a900473ffffffffffffffffffffffffffffffffffffffff16905081600660006101000a81548173ffffffffffffffffffffffffffffffffffffffff021916908373ffffffffffffffffffffffffffffffffffffffff1602179055508173ffffffffffffffffffffffffffffffffffffffff168173ffffffffffffffffffffffffffffffffffffffff167f8be0079c531659141344cd1fd0a4f28419497f9722a3daafe3b4186f6b6457e060405160405180910390a35050565b8173ffffffffffffffffffffffffffffffffffffffff168373ffffffffffffffffffffffffffffffffffffffff1614156112a9576040517f08c379a00000000000000000000000000000000000000000000000000000000081526004016112a090612972565b60405180910390fd5b80600560008573ffffffffffffffffffffffffffffffffffffffff1673ffffffffffffffffffffffffffffffffffffffff16815260200190815260200160002060008473ffffffffffffffffffffffffffffffffffffffff1673ffffffffffffffffffffffffffffffffffffffff16815260200190815260200160002060006101000a81548160ff0219169083151502179055508173ffffffffffffffffffffffffffffffffffffffff168373ffffffffffffffffffffffffffffffffffffffff167f17307eab39ab6107e8899845ad3d59bd9653f200f220920489ca2b5937696c318360405161139a9190611bef565b60405180910390a3505050565b6113b2848484610e8f565b6113be848484846118de565b6113fd576040517f08c379a00000000000000000000000000000000000000000000000000000000081526004016113f490612a04565b60405180910390fd5b50505050565b60008073ffffffffffffffffffffffffffffffffffffffff166002600084815260200190815260200160002060009054906101000a900473ffffffffffffffffffffffffffffffffffffffff1673ffffffffffffffffffffffffffffffffffffffff1614159050919050565b60606009805461147e90612273565b80601f01602080910402602001604051908101604052809291908181526020018280546114aa90612273565b80156114f75780601f106114cc576101008083540402835291602001916114f7565b820191906000526020600020905b8154815290600101906020018083116114da57829003601f168201915b5050505050905090565b60606000821415611549576040518060400160405280600181526020017f3000000000000000000000000000000000000000000000000000000000000000815250905061165d565b600082905060005b6000821461157b57808061156490612a24565b915050600a826115749190612a9c565b9150611551565b60008167ffffffffffffffff81111561159757611596611e4d565b5b6040519080825280601f01601f1916602001820160405280156115c95781602001600182028036833780820191505090505b5090505b60008514611656576001826115e29190612830565b9150600a856115f19190612acd565b60306115fd9190612864565b60f81b81838151811061161357611612612afe565b5b60200101907effffffffffffffffffffffffffffffffffffffffffffffffffffffffffffff1916908160001a905350600a8561164f9190612a9c565b94506115cd565b8093505050505b919050565b6001816000016000828254019250508190555050565b600081600001549050919050565b600073ffffffffffffffffffffffffffffffffffffffff168273ffffffffffffffffffffffffffffffffffffffff1614156116f6576040517f08c379a00000000000000000000000000000000000000000000000000000000081526004016116ed90612b79565b60405180910390fd5b6116ff81611403565b1561173f576040517f08c379a000000000000000000000000000000000000000000000000000000000815260040161173690612be5565b60405180910390fd5b61174b600083836118d4565b6001600360008473ffffffffffffffffffffffffffffffffffffffff1673ffffffffffffffffffffffffffffffffffffffff168152602001908152602001600020600082825461179b9190612864565b92505081905550816002600083815260200190815260200160002060006101000a81548173ffffffffffffffffffffffffffffffffffffffff021916908373ffffffffffffffffffffffffffffffffffffffff160217905550808273ffffffffffffffffffffffffffffffffffffffff16600073ffffffffffffffffffffffffffffffffffffffff167fddf252ad1be2c89b69c2b068fc378daa952ba7f163c4a11628f55a4df523b3ef60405160405180910390a461185c600083836118d9565b5050565b61186982611403565b6118a8576040517f08c379a000000000000000000000000000000000000000000000000000000000815260040161189f90612c77565b60405180910390fd5b806008600084815260200190815260200160002090805190602001906118cf929190611a98565b505050565b505050565b505050565b60006118ff8473ffffffffffffffffffffffffffffffffffffffff16611a75565b15611a68578373ffffffffffffffffffffffffffffffffffffffff1663150b7a02611928610d39565b8786866040518563ffffffff1660e01b815260040161194a9493929190612cec565b602060405180830381600087803b15801561196457600080fd5b505af192505050801561199557506040513d601f19601f820116820180604052508101906119929190612d4d565b60015b611a18573d80600081146119c5576040519150601f19603f3d011682016040523d82523d6000602084013e6119ca565b606091505b50600081511415611a10576040517f08c379a0000000000000000000000000000000000000000000000000000000008152600401611a0790612a04565b60405180910390fd5b805181602001fd5b63150b7a0260e01b7bffffffffffffffffffffffffffffffffffffffffffffffffffffffff1916817bffffffffffffffffffffffffffffffffffffffffffffffffffffffff191614915050611a6d565b600190505b949350505050565b6000808273ffffffffffffffffffffffffffffffffffffffff163b119050919050565b828054611aa490612273565b90600052602060002090601f016020900481019282611ac65760008555611b0d565b82601f10611adf57805160ff1916838001178555611b0d565b82800160010185558215611b0d579182015b82811115611b0c578251825591602001919060010190611af1565b5b509050611b1a9190611b1e565b5090565b5b80821115611b37576000816000905550600101611b1f565b5090565b6000604051905090565b600080fd5b600080fd5b60007fffffffff0000000000000000000000000000000000000000000000000000000082169050919050565b611b8481611b4f565b8114611b8f57600080fd5b50565b600081359050611ba181611b7b565b92915050565b600060208284031215611bbd57611bbc611b45565b5b6000611bcb84828501611b92565b91505092915050565b60008115159050919050565b611be981611bd4565b82525050565b6000602082019050611c046000830184611be0565b92915050565b600081519050919050565b600082825260208201905092915050565b60005b83811015611c44578082015181840152602081019050611c29565b83811115611c53576000848401525b50505050565b6000601f19601f8301169050919050565b6000611c7582611c0a565b611c7f8185611c15565b9350611c8f818560208601611c26565b611c9881611c59565b840191505092915050565b60006020820190508181036000830152611cbd8184611c6a565b905092915050565b6000819050919050565b611cd881611cc5565b8114611ce357600080fd5b50565b600081359050611cf581611ccf565b92915050565b600060208284031215611d1157611d10611b45565b5b6000611d1f84828501611ce6565b91505092915050565b600073ffffffffffffffffffffffffffffffffffffffff82169050919050565b6000611d5382611d28565b9050919050565b611d6381611d48565b82525050565b6000602082019050611d7e6000830184611d5a565b92915050565b611d8d81611d48565b8114611d9857600080fd5b50565b600081359050611daa81611d84565b92915050565b60008060408385031215611dc757611dc6611b45565b5b6000611dd585828601611d9b565b9250506020611de685828601611ce6565b9150509250929050565b600080600060608486031215611e0957611e08611b45565b5b6000611e1786828701611d9b565b9350506020611e2886828701611d9b565b9250506040611e3986828701611ce6565b9150509250925092565b600080fd5b600080fd5b7f4e487b7100000000000000000000000000000000000000000000000000000000600052604160045260246000fd5b611e8582611c59565b810181811067ffffffffffffffff82111715611ea457611ea3611e4d565b5b80604052505050565b6000611eb7611b3b565b9050611ec38282611e7c565b919050565b600067ffffffffffffffff821115611ee357611ee2611e4d565b5b611eec82611c59565b9050602081019050919050565b82818337600083830152505050565b6000611f1b611f1684611ec8565b611ead565b905082815260208101848484011115611f3757611f36611e48565b5b611f42848285611ef9565b509392505050565b600082601f830112611f5f57611f5e611e43565b5b8135611f6f848260208601611f08565b91505092915050565b600060208284031215611f8e57611f8d611b45565b5b600082013567ffffffffffffffff811115611fac57611fab611b4a565b5b611fb884828501611f4a565b91505092915050565b600060208284031215611fd757611fd6611b45565b5b6000611fe584828501611d9b565b91505092915050565b611ff781611cc5565b82525050565b60006020820190506120126000830184611fee565b92915050565b61202181611bd4565b811461202c57600080fd5b50565b60008135905061203e81612018565b92915050565b6000806040838503121561205b5761205a611b45565b5b600061206985828601611d9b565b925050602061207a8582860161202f565b9150509250929050565b600067ffffffffffffffff82111561209f5761209e611e4d565b5b6120a882611c59565b9050602081019050919050565b60006120c86120c384612084565b611ead565b9050828152602081018484840111156120e4576120e3611e48565b5b6120ef848285611ef9565b509392505050565b600082601f83011261210c5761210b611e43565b5b813561211c8482602086016120b5565b91505092915050565b6000806000806080858703121561213f5761213e611b45565b5b600061214d87828801611d9b565b945050602061215e87828801611d9b565b935050604061216f87828801611ce6565b925050606085013567ffffffffffffffff8111156121905761218f611b4a565b5b61219c878288016120f7565b91505092959194509250565b600080604083850312156121bf576121be611b45565b5b60006121cd85828601611d9b565b92505060206121de85828601611d9b565b9150509250929050565b600080604083850312156121ff576121fe611b45565b5b600061220d85828601611d9b565b925050602083013567ffffffffffffffff81111561222e5761222d611b4a565b5b61223a85828601611f4a565b9150509250929050565b7f4e487b7100000000000000000000000000000000000000000000000000000000600052602260045260246000fd5b6000600282049050600182168061228b57607f821691505b6020821081141561229f5761229e612244565b5b50919050565b7f4552433732313a20617070726f76616c20746f2063757272656e74206f776e6560008201527f7200000000000000000000000000000000000000000000000000000000000000602082015250565b6000612301602183611c15565b915061230c826122a5565b604082019050919050565b60006020820190508181036000830152612330816122f4565b9050919050565b7f4552433732313a20617070726f76652063616c6c6572206973206e6f7420746f60008201527f6b656e206f776e6572206e6f7220617070726f76656420666f7220616c6c0000602082015250565b6000612393603e83611c15565b915061239e82612337565b604082019050919050565b600060208201905081810360008301526123c281612386565b9050919050565b7f4552433732313a2063616c6c6572206973206e6f7420746f6b656e206f776e6560008201527f72206e6f7220617070726f766564000000000000000000000000000000000000602082015250565b6000612425602e83611c15565b9150612430826123c9565b604082019050919050565b6000602082019050818103600083015261245481612418565b9050919050565b7f4552433732313a20696e76616c696420746f6b656e2049440000000000000000600082015250565b6000612491601883611c15565b915061249c8261245b565b602082019050919050565b600060208201905081810360008301526124c081612484565b9050919050565b7f4552433732313a2061646472657373207a65726f206973206e6f74206120766160008201527f6c6964206f776e65720000000000000000000000000000000000000000000000602082015250565b6000612523602983611c15565b915061252e826124c7565b604082019050919050565b6000602082019050818103600083015261255281612516565b9050919050565b7f4552433732314d657461646174613a2055524920717565727920666f72206e6f60008201527f6e6578697374656e7420746f6b656e0000000000000000000000000000000000602082015250565b60006125b5602f83611c15565b91506125c082612559565b604082019050919050565b600060208201905081810360008301526125e4816125a8565b9050919050565b600081905092915050565b600061260182611c0a565b61260b81856125eb565b935061261b818560208601611c26565b80840191505092915050565b600061263382856125f6565b915061263f82846125f6565b91508190509392505050565b7f4f776e61626c653a206e6577206f776e657220697320746865207a65726f206160008201527f6464726573730000000000000000000000000000000000000000000000000000602082015250565b60006126a7602683611c15565b91506126b28261264b565b604082019050919050565b600060208201905081810360008301526126d68161269a565b9050919050565b7f4552433732313a207472616e736665722066726f6d20696e636f72726563742060008201527f6f776e6572000000000000000000000000000000000000000000000000000000602082015250565b6000612739602583611c15565b9150612744826126dd565b604082019050919050565b600060208201905081810360008301526127688161272c565b9050919050565b7f4552433732313a207472616e7366657220746f20746865207a65726f2061646460008201527f7265737300000000000000000000000000000000000000000000000000000000602082015250565b60006127cb602483611c15565b91506127d68261276f565b604082019050919050565b600060208201905081810360008301526127fa816127be565b9050919050565b7f4e487b7100000000000000000000000000000000000000000000000000000000600052601160045260246000fd5b600061283b82611cc5565b915061284683611cc5565b92508282101561285957612858612801565b5b828203905092915050565b600061286f82611cc5565b915061287a83611cc5565b9250827fffffffffffffffffffffffffffffffffffffffffffffffffffffffffffffffff038211156128af576128ae612801565b5b828201905092915050565b7f4f776e61626c653a2063616c6c6572206973206e6f7420746865206f776e6572600082015250565b60006128f0602083611c15565b91506128fb826128ba565b602082019050919050565b6000602082019050818103600083015261291f816128e3565b9050919050565b7f4552433732313a20617070726f766520746f2063616c6c657200000000000000600082015250565b600061295c601983611c15565b915061296782612926565b602082019050919050565b6000602082019050818103600083015261298b8161294f565b9050919050565b7f4552433732313a207472616e7366657220746f206e6f6e20455243373231526560008201527f63656976657220696d706c656d656e7465720000000000000000000000000000602082015250565b60006129ee603283611c15565b91506129f982612992565b604082019050919050565b60006020820190508181036000830152612a1d816129e1565b9050919050565b6000612a2f82611cc5565b91507fffffffffffffffffffffffffffffffffffffffffffffffffffffffffffffffff821415612a6257612a61612801565b5b600182019050919050565b7f4e487b7100000000000000000000000000000000000000000000000000000000600052601260045260246000fd5b6000612aa782611cc5565b9150612ab283611cc5565b925082612ac257612ac1612a6d565b5b828204905092915050565b6000612ad882611cc5565b9150612ae383611cc5565b925082612af357612af2612a6d565b5b828206905092915050565b7f4e487b7100000000000000000000000000000000000000000000000000000000600052603260045260246000fd5b7f4552433732313a206d696e7420746f20746865207a65726f2061646472657373600082015250565b6000612b63602083611c15565b9150612b6e82612b2d565b602082019050919050565b60006020820190508181036000830152612b9281612b56565b9050919050565b7f4552433732313a20746f6b656e20616c7265616479206d696e74656400000000600082015250565b6000612bcf601c83611c15565b9150612bda82612b99565b602082019050919050565b60006020820190508181036000830152612bfe81612bc2565b9050919050565b7f4552433732314d657461646174613a2055524920736574206f66206e6f6e657860008201527f697374656e7420746f6b656e0000000000000000000000000000000000000000602082015250565b6000612c61602c83611c15565b9150612c6c82612c05565b604082019050919050565b60006020820190508181036000830152612c9081612c54565b9050919050565b600081519050919050565b600082825260208201905092915050565b6000612cbe82612c97565b612cc88185612ca2565b9350612cd8818560208601611c26565b612ce181611c59565b840191505092915050565b6000608082019050612d016000830187611d5a565b612d0e6020830186611d5a565b612d1b6040830185611fee565b8181036060830152612d2d8184612cb3565b905095945050505050565b600081519050612d4781611b7b565b92915050565b600060208284031215612d6357612d62611b45565b5b6000612d7184828501612d38565b9150509291505056fea2646970667358221220a0627d58b19c71497853d444ad4373541b76c13063cc993232b148f066d3b38764736f6c63430008090033",
  "linkReferences": {},
  "deployedLinkReferences": {}
}